:10000000CAC00000F0C00000EEC00000ECC000005C
:10001000EAC00000E8C00000E6C00000E4C0000044
:10002000E2C00000E0C00000DEC000000C942A1313
:100030000C94D711D8C00000D6C00000D4C0000076
:10004000D2C00000D0C00000CEC00000CCC0000074
:10005000CAC000000C94CE13C6C00000C4C000008B
:10006000C2C00000C0C00000BEC00000BCC0000094
:10007000BAC000006001BA01CE010102B803D10389
:10008000A706C807A507BC071A02C807C807C807FC
:10009000C807C807210250039403A703B403B4039D
:1000A000B40306C0FF0A000CA1017508150026FF65
:1000B00000954009018102954009029102C00000AB
:1000C0000000000000050003040000020000000022
:1000D000000000010204081020408080402010042D
:1000E0000102040810204080020202020202020201
:1000F00003030303030404040404040404000000D1
:100100000023002600290000000000250028002B05
:100110000000000000240027002A00080B00020253
:100120000201000904000001020200000524001081
:10013000010524010101042402060524060001072B
:1001400005810310004009040100020A00000007B5
:100150000502024000000705830240000012010072
:1001600002EF02014041233D000001010203014171
:10017000726475696E6F204C4C43004172647569FE
:100180006E6F20434D5349532D44415000040309E1
:100190000400D70C8E0E11241FBECFEFD2E0DEBFBD
:1001A000CDBF11E0A0E0B1E0E4E8F9E202C00590C3
:1001B0000D92A037B107D9F722E0A0E7B1E001C066
:1001C0001D92A536B207E1F710E0CBECD0E004C0F9
:1001D0002197FE010E94BA14C93CD107C9F70E94B9
:1001E000BE130C94C0140CCF40E052EC61E070E000
:1001F00085E292E00E94880E8BD7E2E0F2E080EB8D
:1002000091E0968F858F80E490E0928F818F148E9D
:10021000138E089580911D0290911E0218161906E2
:10022000B4F460E771E080EB91E012D010921E020E
:1002300010921D02672B682B692B49F080910502F3
:1002400040E450E060E771E080640C94D2100895BF
:100250002F923F924F925F926F927F928F929F92D6
:10026000AF92BF92CF92DF92EF92FF920F931F93C4
:10027000CF93DF93CDB7DEB76C970FB6F894DEBFA0
:100280000FBECDBFDC019B018C9190E8980F90329E
:1002900020F48FEFDB018C937EC6FB013196FA8B45
:1002A000E98BFB018083EC914E2F50E047315105E3
:1002B00008F06EC61B01FA01E65CFF4F0C94BA14FD
:1002C00011968C91843071F188F48230A9F0F8F4A1
:1002D000813009F042C087E0E1E1F1E0DB011296F4
:1002E00001900D928A95E1F707E038C08E3F79F1D1
:1002F00040F5803F61F131C082E1E8E1F1E0DB01EE
:10030000129601900D928A95E1F702E127C085E0EF
:10031000EAE2F1E0DB01129601900D928A95E1F795
:1003200005E01CC080912F0190913001A091310116
:10033000B0913201FB0182839383A483B58304E0EF
:100340000DC080E4FB018283138202E007C081E0DC
:10035000D10112968C9301E001C000E0F10101830C
:1003600010E020E030E0C901B8016E5F7F4F8F4F91
:100370009F4FB5C611968C911197882341F081301B
:1003800009F09BC112966C91617081E104C01296D4
:100390006C91617082E10E94380DEEC51196CC908F
:1003A000CC2021F0D12CE12CF12C04C0C12CD12C7B
:1003B0007601C3940E94750BCA94CD28CE28CF280D
:1003C00009F0DAC511E01093F10161E083E00E94C9
:1003D000FC0C61E082E00E94FC0C61E086E00E947F
:1003E000FC0C60E085E00E94FC0C60E084E00E9470
:1003F000FC0CD10111961C9301E010E020E030E0EC
:10040000CFC51092F10160E083E00E94FC0C62E035
:1004100082E00E94FC0C60E085E00E94FC0C60E041
:1004200084E00E94FC0C62E086E00E94FC0C0E94CA
:10043000740BB3C1DB0112961C92129711961C9299
:1004400081C411960C911197C02ED12CE12CF12C66
:1004500012961C9112971396AD90BC901497B12FE1
:10046000B170BD8310FF08C000FF02C061E001C091
:1004700060E083E00E94380DE12FE270E98711FF10
:1004800008C001FF02C061E001C060E082E00E949C
:10049000380DF12FF470FD8712FF0EC0D701C60191
:1004A000F2E0B695A79597958795FA95D1F7682FBD
:1004B000617085E00E94380D012F007861F0C7015E
:1004C000B601E7E09695879577956795EA95D1F718
:1004D00086E00E94380DAB2809F43DC026013701A3
:1004E0007694679457944794498A5A8A6B8A7C8A8F
:1004F0004601570192E0B694A794979487949A95F1
:10050000D1F72601370125E07694679457944794F4
:100510002A95D1F7A701960167E05695479537953B
:1005200027956A95D1F72D8B3E8B4F8B588F107284
:1005300005C0C114D104E104F10419F0BD81B11169
:10054000F8CFE985E11164C0FD85F11178C0111182
:1005500089C001118EC082E00E94660D8C0185E089
:100560000E94660DC12CD12C7601C3940130110577
:1005700019F0C12CD12C7601CC0CDD1CEE1CFF1C1B
:1005800041E050E060E070E0019719F040E050E099
:10059000BA01E2E0440F551F661F771FEA95D1F7B5
:1005A00046015701842A952AA62AB72A84E00E9488
:1005B000660DC12CD12C7601C394019719F0C12C82
:1005C000D12C760143E0CC0CDD1CEE1CFF1C4A95BF
:1005D000D1F7C828D928EA28FB2886E00E94660DB2
:1005E00041E050E060E070E0019719F040E050E039
:1005F000BA0137E0440F551F661F771F3A95D1F7B0
:100600004C295D296E297F29D10111964C93F4CE96
:1006100082E00E94660D41E050E060E070E00197EA
:1006200019F040E050E0BA0189899A89AB89BC8908
:1006300084179507A607B70709F080CF85CF85E017
:100640000E94660D41E050E060E070E0019719F013
:1006500040E050E0BA0184169506A606B70609F0F8
:100660006DCF75CF411451046104710409F066CF58
:1006700070CF86E00E94660D41E050E060E070E0DF
:10068000019719F040E050E0BA018D899E89AF8949
:10069000B88D84179507A607B70709F04FCF5BCF32
:1006A00011962D913C911297032E000C440B550B83
:1006B000211531054105510529F48FEFD10111961E
:1006C0008C939ACE2115B9E03B07BDE34B0751054A
:1006D00080F081E08093F20181E090E0A0E0B0E062
:1006E0008093F3019093F401A093F501B093F60188
:1006F00043C41092F201CA01B90161507E4E85488F
:100700009F4F0E949814CA01B90123E030E040E0F5
:1007100050E00E9498142093F3013093F401409329
:10072000F5015093F60128C4AD014E5F5F4F11965D
:100730006C9170E080E090E0611571058105910594
:1007400021F460E071E080E090E00CD515C41196D2
:100750008C91982F93709F5F9093000282FB882763
:1007600080F98093010219C08FEFFB0181830BC4D4
:1007700011968C9111978093F70112968D919C910F
:1007800013979093F9018093F80114968D919C91A1
:1007900015979093FB018093FA01D10111961C9259
:1007A0002BCE8091F101813009F0C6C28B010D5F23
:1007B0001F4F1092F001FD013396FE83ED831296D8
:1007C0008C91482E512C612C712C498E5A8E6B8E37
:1007D0007C8E812C912C5401C12CD12C760140E0CF
:1007E00050E0BA011D861E861F86188A498C5A8CD5
:1007F0006B8C7C8C8D859E85AF85B8894816590693
:100800006A067B0609F436C24D805E809FEF491A66
:10081000590AAD81BE817C90872D90E0A0E0B0E0C8
:1008200089879A87AB87BC8771FE75C1C114D104D3
:10083000E104F10409F45FC08090F8019090F9019F
:10084000A12CB12C872D8171813081F5AE014F5FD4
:100850005F4F69857A858B859C8545D7482F50E009
:1008600060E070E0423051056105710599F5811431
:100870009104A104B10409F42DC48091F00191E028
:10088000891A9108A108B108882301F323C48114AF
:100890009104A104B10409F41DC48091F001A1E008
:1008A0008A1A9108A108B108811114C4AE014F5FE2
:1008B0005F4F6EE070E080E090E015D7482F50E089
:1008C00060E070E0423051056105710501F3C12C13
:1008D000D12C7601413051056105710509F023C223
:1008E00039812A819B818C81F80130832183928315
:1008F00083830C5F1F4F872D817074FEBCC0AD8158
:10090000BE8111962D913C9112972901330F6608F3
:1009100077084D8A5E8A6F8A788E8090FA0190906F
:10092000FB01A12CB12C882309F474C04090F8017C
:100930005090F901612C712C40E050E069857A8576
:100940008B859C85D0D6482F50E060E070E0423027
:1009500051056105710509F02AC341145104610470
:10096000710409F4E0C18091F00121E0421A5108BC
:1009700061087108882301F3D6C141145104610450
:10098000710409F44EC08091F00131E0431A51081E
:1009900061087108811145C0AE014F5F5F4F6985E5
:1009A0007A858B859C859FD6282F482F50E060E064
:1009B00070E04230510561057105F9F24130510591
:1009C0006105710579F58091FC019091FD01A0917F
:1009D000FE01B091FF0149805A806B807C804822E3
:1009E00059226A227B228D899E89AF89B88D841510
:1009F0009505A605B705B1F081149104A104B104D1
:100A000089F08091F00191E0891A9108A108B1085C
:100A1000811108C04090F8015090F901612C712CAF
:100A2000BBCF22E04090FC015090FD016090FE01A0
:100A30007090FF0189809A80AB80BC8084209520D3
:100A4000A620B7204D885E886F88788C481459049A
:100A50006A047B0421F0822F8061482F64C14130F9
:100A600051056105710509F05EC14D805E8035E07C
:100A7000430E511CEAC08090F8019090F901A12C1E
:100A8000B12C8823B1F1C114D104E104F10409F0BF
:100A9000DCC040E050E069857A858B859C8523D653
:100AA000482F50E060E070E042305105610571056B
:100AB00009F084C281149104A104B10409F40AC3A9
:100AC0008091F00121E0821A9108A108B1088823E1
:100AD00001F300C381149104A104B10409F423C1FA
:100AE0008091F00131E0831A9108A108B1088111C9
:100AF0001AC1AE014F5F5F4F69857A858B859C85F2
:100B0000F2D5482F50E060E070E0423051056105B9
:100B1000710501F384C0CD28CE28CF28C1F1C09043
:100B2000F801D090F901E12CF12CAE014F5F5F4F3D
:100B30006EE070E080E090E0D6D5482F50E060E0B5
:100B400070E0423051056105710581F4C114D10492
:100B5000E104F10409F4E7C08091F001B1E0CB1A9F
:100B6000D108E108F108882301F3DDC041305105C7
:100B70006105710509F0D7C039812A819B818C817B
:100B8000F80130832183928383830C5F1F4FED81B3
:100B9000FE8181819281A381B48189839A83AB8311
:100BA000BC832F01F5E04F0E511C75FE10C08093E1
:100BB000FC019093FD01A093FE01B093FF01C12CB5
:100BC000D12C760141E050E060E070E041C0C0907F
:100BD000F801D090F901E12CF12CAE014F5F5F4F8D
:100BE00069857A858B859C857ED5482F50E060E0AD
:100BF00070E0423051056105710509F0EDC1C11485
:100C0000D104E104F10409F465C28091F00121E00E
:100C1000C21AD108E108F1088823F9F25BC2413019
:100C200051056105710509F07EC039812A819B81DA
:100C30008C81D8013C9311962C93119712969C931A
:100C4000129713968C930C5F1F4F812C912C54019B
:100C50008D859E85AF85B8890196A11DB11D8D87B3
:100C60009E87AF87B88B8091F001811103C05E82AF
:100C70004D82BCCD413051056105710509F053C06D
:100C8000CD28CE28CF2839F1C090F801D090F901B5
:100C9000E12CF12CAE014F5F5F4F6EE070E080E021
:100CA00090E021D5482F50E060E070E042305105DF
:100CB0006105710509F09EC1C114D104E104F1047C
:100CC00091F18091F00191E0C91AD108E108F10891
:100CD000882301F328C089288A288B2821F1C09015
:100CE000F801D090F901E12CF12C40E050E06EE0E9
:100CF00070E080E090E0F7D4482F50E060E070E0D2
:100D0000423051056105710571F4C114D104E1044B
:100D1000F10449F08091F001B1E0CB1AD108E1086B
:100D2000F108882311F34D84F101418242836988DF
:100D30007A8806191709F6C0DB0111961C921197E3
:100D400012961C9202E010E020E030E029C1809170
:100D5000F101813009F0EBC0FB013496FA87E98795
:100D60001092F00112968D919C9113972C01990F7E
:100D7000660877084D825E826F827886452846280D
:100D8000472809F4BFC014968C911497882E912C93
:100D9000A12CB12C81FD07C08D010B5F1F4FC12C11
:100DA000D12C76017EC080FF24C0C090F801D09085
:100DB000F901E12CF12C40E050E0C501B40193D4DD
:100DC00090E0A0E0B0E082309105A105B10509F006
:100DD00028C1C114D104E104F10409F496C02091A2
:100DE000F00131E0C31AD108E108F108222319F318
:100DF0008CC080E090E0DC0109851A854D805E8022
:100E00006F8078844D865E866F86788AC12CD12C5F
:100E100076011A8709872D853E854F85588921508F
:100E20003109410951092D873E874F87588B4D80E5
:100E30005E806F8078844C145D046E047F0409F436
:100E400067C0232B242B252B39F480FE05C02EE010
:100E5000822E912CA12CB12C4090F8015090F901D8
:100E6000612C712CAE014F5F5F4FC501B4013BD4C3
:100E700090E0A0E0B0E082309105A105B10509F055
:100E8000D7C0411451046104710409F441C0209198
:100E9000F00131E0431A510861087108222311F36F
:100EA00037C0D8018D919C91092E000CAA0BBB0B69
:100EB00089839A83AB83BC830C5F1F4F4090F801FA
:100EC0005090F901612C712CAE014F5F5F4FC5014D
:100ED000B40109D490E0A0E0B0E082309105A10512
:100EE000B10509F0BCC0411451046104710481F0E2
:100EF0002091F001E1E04E1A5108610871082223A7
:100F000019F306C080E090E0DC01C12CD12C760101
:100F1000F101C182D282838309851A8549885A8862
:100F200004191509012E000C220B330B39C0DB010B
:100F300011961C92119712961C92129713961C925E
:100F400003E010E020E030E02BC08091F10181301F
:100F5000B1F412968D919C911397092E000CAA0B57
:100F6000BB0B89839A83AB83BC83AE014F5F5F4F1A
:100F700060E070E0CB01B7D3F10111823DCA8FEF81
:100F8000DB0111968C9362E070E080E090E0A7C0F6
:100F90008FEFF901808361E070E080E090E09FC016
:100FA000C901B8016F5F7F4F8F4F9F4F98C041308D
:100FB00051056105710509F42DCDB5CE41305105BE
:100FC0006105710509F0AFCE812C912C5401C12C23
:100FD000D12C7601C3943CCE413051056105710599
:100FE00009F0A1CE812C912C54018394C12CD12CD9
:100FF00076012ECE413051056105710509F093CE81
:1010000039812A819B818C81D8013C9311962C9344
:10101000119712969C93129713968C930C5F1F4F07
:1010200082CE81309105A105B10509F4E5CE6DCFE1
:1010300081309105A105B10509F06ACF59814A8136
:101040003B812C81F8015083418332832383FFEF5E
:10105000CF1ADF0AEF0AFF0A0C5F1F4FDACE81308A
:101060009105A105B10509F053CFFFEFCF1ADF0AB3
:10107000EF0AFF0A4D805E806F8078844C145D0417
:101080006E047F0409F00DCF8090F8019090F90173
:10109000A12CB12C40E050E06EE070E080E090E0E8
:1010A00022D390E0A0E0B0E082309105A105B10527
:1010B00009F02ECF81149104A104B10409F428CFC2
:1010C0002091F00131E0831A9108A108B108222390
:1010D00009F31ECF42E050E060E070E024CE6C9651
:1010E0000FB6F894DEBF0FBECDBFDF91CF911F9139
:1010F0000F91FF90EF90DF90CF90BF90AF909F90B7
:101100008F907F906F905F904F903F902F900895B9
:10111000E1EFF1E08FEF9FEFDC0182839383A48303
:10112000B58384E690E09087878381E0878760E0DD
:1011300083E062D462E082E05FD462E086E05CD467
:1011400060E085E059D460E084E056D461E082E15B
:1011500053D460E082E18CD461E081E14DD460E061
:1011600081E186C44F925F926F927F928F929F929D
:10117000AF92BF92CF92DF92EF92FF92CF93DF9325
:10118000EA016B017C01412C512C3201812C912C04
:101190005401C114D104E104F10459F14114510482
:1011A0006104710451F48880912CA12CB12C2196FA
:1011B00098E0492E512C612C712C80FE02C061E018
:1011C00001C060E082E054D460E083E051D461E08B
:1011D00083E04ED4B694A7949794879481E0481AFC
:1011E00051086108710881E0C81AD108E108F108C6
:1011F000D0CFDF91CF91FF90EF90DF90CF90BF9055
:10120000AF909F908F907F906F905F904F900895D8
:101210004F925F926F927F928F929F92AF92BF9206
:10122000CF92DF92EF92FF920F931F93CF93DF93B2
:1012300000D000D000D0CDB7DEB74B015C018A01F1
:1012400061E082E015D460E083E012D461E083E0E5
:101250000FD4682D617082E00BD460E083E008D485
:1012600061E083E005D424013501769467945794B6
:101270004794642D617082E0FBD360E083E0F8D393
:1012800061E083E0F5D3D501C40122E0B695A795CE
:10129000979587952A95D1F7480E591E6A1E7B1E91
:1012A000682F617082E0E4D360E083E0E1D361E025
:1012B00083E0DED3480C591C6A1C7B1C7501640159
:1012C00033E0F694E794D794C7943A95D1F76C2D10
:1012D000617082E0CDD360E083E0CAD361E083E057
:1012E000C7D3D301C2018C0D9D1DAE1DBF1D682F3C
:1012F000617082E0BDD360E083E0BAD361E083E057
:10130000B7D360E082E0B4D360E083E0B1D361E0C2
:1013100083E0AED361E082E0ABD360E083E0A8D3AA
:1013200061E083E0A5D362E082E066D3C090000272
:10133000D12CE12CF12C60E083E0C114D104E10454
:10134000F10451F095D361E083E092D321E0C21A19
:10135000D108E108F108EFCF8BD382E0B7D33C018D
:1013600061E083E085D360E083E082D382E0AED3A6
:101370007C0161E083E07CD360E083E079D382E0AC
:10138000A5D39A83898361E083E072D341E050E082
:1013900060E070E0EA94EF2819F040E050E0BA0114
:1013A0006A017B01CC0CDD1CEE1CFF1C41E050E00F
:1013B00060E070E089819A81019719F040E050E087
:1013C000BA01E2E0440F551F661F771FEA95D1F777
:1013D0004C295D296E297F29C12CD12C7601C3941B
:1013E0006A94672819F0C12CD12C7601C42AD52A19
:1013F000E62AF72AA1E0CA16D104E104F10409F0B3
:10140000E9C081FE86C01E821D82812C912C540170
:1014100019821A821B821C8260E083E029D382E059
:1014200055D3412C512C32014394019719F0412C92
:10143000512C320161E083E01BD3840C951CA61C67
:10144000B71C89819A81AB81BC81B695A795979588
:101450008795772446947794662455244424A301E1
:101460009201282B392B4A2B5B2B29833A834B8300
:101470005C834D815E814F5F5F4F5E834D83403261
:10148000510551F660E083E0F3D282E01FD39E83E2
:101490008D8361E083E0ECD281E090E0A0E0B0E0F9
:1014A000ED81FE81319719F080E090E0DC01882623
:1014B0009926AA26BB2680FE05C098E0C92ED12C0D
:1014C000E12CF12C0115110551F029813A814B8154
:1014D0005C81D8012D933D934D935C93139780903D
:1014E0000002912CA12CB12C81149104A104B1040F
:1014F00061F060E083E0BCD261E083E0B9D2B1E0AA
:101500008B1A9108A108B108EFCF61E082E074D294
:1015100046C080900002912CA12CB12C8114910422
:10152000A104B10461F060E083E0A2D261E083E055
:101530009FD2E1E08E1A9108A108B108EFCF61E0D7
:1015400082E05AD2D8014D905D906D907C901A82C5
:101550001982812C912C5401642D617082E088D213
:1015600060E083E085D261E083E082D2840C951C48
:10157000A61CB71C7694679457944794E981FA8126
:101580003196FA83E983B09739F7682D617082E06C
:101590006FD260E083E06CD261E083E069D280903A
:1015A000F701912CA12CB12C81149104A104B10458
:1015B00009F47EC060E082E05BD260E083E058D254
:1015C00061E083E055D2F1E08F1A9108A108B108DB
:1015D000A1F76EC022E0C216D104E104F10439F093
:1015E00034E0C316D104E104F10409F04BC080914A
:1015F0000102811106C040900002512C612C712C17
:1016000014C081FEF8CF1A82198260E083E030D2E4
:1016100061E083E02DD249815A814F5F5F4F5A8349
:1016200049834132510589F7E6CF411451046104E1
:10163000710461F060E083E01BD261E083E018D2C6
:1016400051E0451A510861087108EFCF61E082E06E
:10165000D3D180910102882359F181FC29C060E037
:1016600082E006D21A82198260E083E001D261E052
:1016700083E0FED189819A8101969A83898381973B
:1016800099F716C080900002912C91E2890E911C6E
:10169000092C000CAA08BB0860E083E0E9D161E0F6
:1016A00083E0E6D1A1E08A1A9108A108B108A1F768
:1016B00061E082E0DDD18C2D26960FB6F894DEBF76
:1016C0000FBECDBFDF91CF911F910F91FF90EF9093
:1016D000DF90CF90BF90AF909F908F907F906F9052
:1016E0005F904F90089594CD0895089580E090E024
:1016F0000895FC0182818F5BFB01808381E0089566
:10170000FC01838D948D97FF02C080E090E00895E6
:10171000FC018189928997FF02C080E090E00895E2
:10172000DC015B968D919C915C9718161906B4F4B8
:101730005D962D913C915E975996ED91FC915A974B
:10174000AC01415051095C965C934E935B97E81B4A
:10175000F90BE20FF31F808190E008958FEF9FEF68
:1017600008950A97DDCFDC015B968D919C915C9783
:10177000181619067CF45996ED91FC915A97E81BBE
:10178000F90B5D968D919C915E97E80FF91F808112
:1017900090E008958FEF9FEF08950A97E4CF0895A2
:1017A0000895CF93DF931F92CDB7DEB76983DC0135
:1017B000ED91FC910288F389E02D41E050E0BE01FB
:1017C0006F5F7F4F09950F90DF91CF9108950A9732
:1017D000E8CFCF93DF93CDB7DEB769970FB6F89414
:1017E000DEBF0FBECDBFFC01DB019C919F5F9C93D0
:1017F000BE016F5F7F4F89E1DB011D928A95E9F79A
:1018000029E0298384E08A8391E09D8383E08E83AD
:101810002A8721E22B879C879D879F8722E2288B3E
:101820002CE1298B27E02B8B25E02C8B8E8B20E461
:1018300030E0388F2F8B998F82818B8383818068F2
:101840008D8B49E150E080E05AD569960FB6F89447
:10185000DEBF0FBECDBFDF91CF910895FC01838124
:101860008064A0C40F931F93CF93DF93EC01FB011F
:101870008A8190E0248135818217930709F044C062
:1018800091818081813A39F481E0913009F43DC041
:101890009330D1F53AC08132B9F59B3019F4828189
:1018A0008F8B30C09A3019F48281888F2BC0993089
:1018B00059F5068117818381833079F489A19AA132
:1018C0000817190709F5B8018F8D98A13ED589A190
:1018D0009AA190689AA389A315C08230A9F48B8D30
:1018E0009C8D892B89F4898D9A8D8017910764F0DE
:1018F000801B910B2D8D3E8DB801820F931F25D536
:101900001C8F0B8F81E001C080E0DF91CF911F9190
:101910000F910895FB0120812138B1F423812232F7
:1019200099F4DC0112962C91129730E04481558194
:101930004217530749F421E057962C934CE150E0AD
:1019400062EA70E080E8DBC480E090E00895CF9325
:10195000DF93EC0181E08C838D839E012A5E3F4FF3
:101960003F832E83198618861D861C8648EE53E019
:1019700060E070E04E875F87688B798B27E331E00A
:10198000398328832FE431E03B872A878F8B888F28
:101990001A8E198E1C8E1B8E18A21F8E1AA219A2C7
:1019A00081EC8E8B9CD2BE01DF91CF9151C282E03F
:1019B00092E0CDCF833059F028F48130B1F08230FD
:1019C000B9F00895843039F0853049F00895809158
:1019D00080008F7707C0809180008F7D03C0809149
:1019E0008000877F80938000089584B58F7702C040
:1019F00084B58F7D84BD0895CF93DF9390E0FC0183
:101A0000ED52FF4F2491FC01E851FF4F8491882350
:101A100061F190E0880F991FFC01EF5EFE4FC591C8
:101A2000D491FC01E95FFE4FA591B491611109C009
:101A30009FB7F8948881209582238883EC912E2388
:101A40000BC0623061F49FB7F8948881322F3095D3
:101A500083238883EC912E2B2C939FBF06C08FB7D6
:101A6000F894E8812E2B28838FBFDF91CF910895C2
:101A70001F93CF93DF93282F30E0F901E254FF4FFB
:101A80008491F901ED52FF4FD491F901E851FF4FD4
:101A9000C491CC23B9F0162F81118CDFEC2FF0E02C
:101AA000EE0FFF1FE95FFE4FA591B4919FB7F89429
:101AB000111104C08C91D095D82302C0EC91DE2B7B
:101AC000DC939FBFDF91CF911F910895CF93DF9358
:101AD000282F30E0F901E254FF4F8491F901ED52D3
:101AE000FF4FD491F901E851FF4FC491CC2389F005
:101AF000811160DFEC2FF0E0EE0FFF1FE350FF4F8E
:101B0000A591B491EC91ED2381E090E021F480E087
:101B100002C080E090E0DF91CF910895CF93DF93F2
:101B20001F92CDB7DEB76983DC01ED91FC91028095
:101B3000F381E02D41E050E0BE016F5F7F4F0995DA
:101B40000F90DF91CF910895CF93DF93EC018C85B7
:101B50009D8597FF04C082E0F6D29D878C878C8597
:101B60009D85DF91CF91089583E003D390E00895A0
:101B700083E066C5FC018485958597FD05C082E0FC
:101B80008FD290E00196089582E08AD290E0089585
:101B9000FC018485958597FD05C02FEF3FEF3587C4
:101BA0002487089582E0CFC2CF93DF93EC01809128
:101BB0000B01882329F083E0F5D21816190634F0BA
:101BC00081E090E09B838A8380E090E0DF91CF9179
:101BD0000895EEEFFFE32591349181E02B3F3C4DDA
:101BE00009F080E00895FC0190819E5F908342E4BB
:101BF00050E06BE171E080E882C3FC01818190815B
:101C0000913A51F4813209F062C047E050E064E05B
:101C100071E080E074D359C0913209F058C083322A
:101C200069F482819381A0E0B0E0809300019093F9
:101C30000101A0930201B093030147C0803231F447
:101C400067E070E084E091E080D33FC0823209F029
:101C50003CC0828180930B01BCDF882319F0EEEF3A
:101C6000F2E002C0E0E0F8E080910401909105010B
:101C7000A0910601B0910701803B9440A105B105F8
:101C800041F580910B0180FD24C0EE3F82E0F80712
:101C900051F080819181873727E7920721F0909357
:101CA000FF028093FE0287E797E79183808380910C
:101CB0006000809345029BE088E10FB6F894A895F8
:101CC000809360000FBE9093600081E0089580E0F3
:101CD00008958081918187379747B9F7A8958091BA
:101CE000600088618093600080914502809360006D
:101CF000EE3F82E0F80739F08091FE029091FF02FA
:101D000091838083E2CF1092FF021092FE02DDCF1A
:101D10002FEF3FEFFC01358724870895E5E2F2E0DD
:101D20001382128288EE93E0A0E0B0E08483958372
:101D3000A683B78381E691E0918380838FEF9FEF45
:101D4000958784870895EF92FF920F931F93CF9307
:101D5000DF937B01FC01C281D38100E010E020977A
:101D600081F0E881F9810280F381E02DB701CE0195
:101D7000099597FD08C0080F191F0884D985C02D43
:101D8000EECFC80102C08FEF9FEFDF91CF911F917F
:101D90000F91FF90EF9008950F931F93CF93DF93D0
:101DA0008B01FC01C281D381209771F0E881F98118
:101DB0000480F581E02DB801CE010995009731F43A
:101DC0000884D985C02DF0CF80E090E0DF91CF91DD
:101DD0001F910F9108950F931F93CF93DF938B0162
:101DE000FC01C281D381209771F0E881F9810680DE
:101DF000F781E02DB801CE010995080F111D088467
:101E0000D985C02DF0CFF8011082DF91CF911F91BD
:101E10000F9108950F931F93CF93DF938B01FC01D4
:101E2000C281D381209771F0E881F9810190F0811E
:101E3000E02DB801CE010995811105C00884D9852E
:101E4000C02DF0CF80E0DF91CF911F910F910895C9
:101E5000CF93DF93FC01DB01218114968C911497C1
:101E600090E0820F911D0697A4F5C281D38120973F
:101E700019F47383628308C088859985009711F0EF
:101E8000EC01FACFB987A887808112968C931297BC
:101E9000818113968C931397908115968C91159749
:101EA000890F808380E014969C911497891798F489
:101EB0001696CD91DC911797C80FD11D9881C181DD
:101EC000D0E0C45FDE4F988391819F5F91838F5FE5
:101ED000EACF80E001C081E0DF91CF910895809149
:101EE0004A0281110DC082E08093460284E0809313
:101EF0004702109249021092480281E080934A0200
:101F000086E492E00895CF92DF92EF92FF920F93D2
:101F10001F93CF93DF936C017A018B01C0E0D0E077
:101F2000CE15DF0581F0D8016D918D01D601ED91BF
:101F3000FC910190F081E02DC6010995892B11F0EB
:101F40002196EECF7E01C701DF91CF911F910F91B6
:101F5000FF90EF90DF90CF900895615030F0209186
:101F6000F100FC0120830196F8CF5C9884E6809311
:101F70005A02089540915502509156022091530201
:101F80003091540242175307B4F49091E8009570D1
:101F9000E1F39091E80092FD19C08093F1008091E7
:101FA00055029091560201968F739927892B19F447
:101FB0008EEF8093E8008091550290915602019631
:101FC000909356028093550281E0089580E0089531
:101FD000DF92EF92FF920F931F93CF93DF93D82E50
:101FE000F92EE42E062F10E0C8010196880FC2DFFB
:101FF00083E0C0DFCD2DDF2D0C0F1D1FC017D107D3
:1020000079F0E7FE03C0FE01849101C08881B2DF50
:10201000F82E80E0AFDF8F2121968111EFCF01C034
:1020200081E0DF91CF911F910F91FF90EF90DF90B2
:10203000089580EA8093D80089B5846089BD89B508
:10204000826089BD09B400FEFDCF61E070E080E0F0
:1020500090E013D48091D8008F7D8093D800809138
:10206000E000887F8093E0000895CF93DF931F9274
:10207000CDB7DEB71982CE010196B5DD30DFBE01E6
:102080006F5F7F4F60DE89810F90DF91CF91089560
:102090002FB7FC012083F89467706093E9000895DE
:1020A000CF93DF931F92CDB7DEB7682FCE01019695
:1020B000EFDF8091F20099819FBF0F90DF91CF9168
:1020C0000895EF92FF920F931F93CF93DF931F9288
:1020D000CDB7DEB790915902992311F057FF03C095
:1020E0008FEF9FEF28C08A017B01682FCE010196F8
:1020F000CFDF2091F20030E0021713070CF49801B3
:10210000822FF70194E6815038F05C9890935A0240
:102110004091F1004193F7CF2115310521F08091D5
:10212000F200882321F089818FBFC90104C08BE6AA
:102130008093E800F8CF0F90DF91CF911F910F911E
:10214000FF90EF900895CF93DF931F92CDB7DEB746
:1021500041E050E0BE016F5F7F4FB3DF019719F49C
:10216000898190E002C08FEF9FEF0F90DF91CF91B8
:102170000895CF93DF931F92CDB7DEB7682FCE01BE
:10218000019686DF9091E800892F807295FF04C048
:102190009091F20080E4891B99819FBF0F90DF919D
:1021A000CF9108955F926F927F928F929F92AF929C
:1021B000BF92CF92DF92EF92FF920F931F93CF9334
:1021C000DF931F92CDB7DEB7982E6B01B42E052F8B
:1021D00080915902811103C08FEF9FEF74C08091ED
:1021E000570280FF05C08091E00082608093E0008C
:1021F000EB2CF02EA12C8AEF882E892D8072682E70
:10220000892D8074582E9AE3792EE114F10419F483
:10221000AA2009F452C0892DACDF182F811109C002
:102220008A948820C9F261E070E080E090E025D3D4
:10223000ECCF90E0E816F9060CF41E2D692DCE01C6
:10224000019626DF8091E80085FF34C0812F90E061
:10225000E81AF90A662029F01150A0F01092F10056
:10226000FBCFF60197FE0AC0115050F02491209345
:10227000F1003196F9CF21912093F1001150D8F758
:10228000C80ED91EAA2019F07092E8000BC08091E8
:10229000E80085FD09C07092E800AA24A394E11427
:1022A000F10441F0A12C06C0E114F10419F451101D
:1022B0007092E80089818FBFA8CF5D9884E68093F3
:1022C0005B028B2D902F0F90DF91CF911F910F917B
:1022D000FF90EF90DF90CF90BF90AF909F908F9046
:1022E0007F906F905F9008951092E90010925602CF
:1022F0001092550290935402809353020895DF92F6
:10230000EF92FF920F931F93CF93DF93D82E8A0102
:102310007B01E40EF51EEB01CE15DF0569F0D7FE5B
:1023200003C0FE01849101C0888124DE21968111C1
:10233000F3CF8FEF9FEF01C0C801DF91CF911F91C5
:102340000F91FF90EF90DF900895AF92BF92DF92D0
:10235000EF92FF920F931F93CF93DF935C018B015A
:10236000EB019BEFD92E2097B9F07E01C134D10546
:102370001CF080E4E82EF12C8091E80082FFFCCF75
:10238000C8018C1B9D0B6E2D8A0D9B1DE6DDD09226
:10239000E800CE19DF09E7CFC801DF91CF911F9187
:1023A0000F91FF90EF90DF90BF90AF9008951F9234
:1023B0000F920FB60F921124CF92DF92EF92FF92FD
:1023C0000F931F932F933F934F935F936F937F933D
:1023D0008F939F93AF93BF93EF93FF93CF93DF932D
:1023E000CDB7DEB76C97DEBFCDBF1092E90080910C
:1023F000E80083FF06C168E0CE014596AEDD82EFBE
:102400008093E8008D8987FF05C09091E80090FFD8
:10241000FCCF03C09EEF9093E800982F907609F0D0
:10242000CDC09E894F89588D2F89188D91110CC070
:10243000803829F4809158028093F10002C01092F4
:10244000F1001092F100D6C0913051F48111D2C048
:102450004130510509F0CEC0809158028D7F0BC0EC
:10246000933061F48111C6C04130510509F0C2C0FA
:1024700080915802826080935802BCC0953049F424
:102480008091E80080FFFCCF822F80688093E3007A
:10249000B1C0963009F065C0EB8CFC8C123041F570
:1024A00080E090E021DFE1DD99E09E012F5F3F4F6A
:1024B0006901F901292F11922A95E9F799831A8365
:1024C00091E09E8390EA98879AEF99872091550230
:1024D00030915602275F3F4F3C832B838D83C7018A
:1024E00003DF49E050E0B60180E009DFBEDD82C0D5
:1024F000C701FADEF4DCBE016B5E7F4F4DDC009756
:1025000019F00CF077C07AC0113009F469C01330AB
:1025100009F074C08F89882309F465C0823029F4DA
:1025200040E861E18BE791E006C0813031F440E89A
:102530006BE08FE691E04CDD50C0833009F05EC067
:10254000CEDC8E010F5F1F4FB80145DCF801019012
:102550000020E9F73197BF01601B710B40E0C80113
:10256000EACF973009F44AC0983021F481E0809393
:10257000F10040C0993009F03DC0837009F03EC0C1
:10258000EDE0F1E081E031E096E32081211109C026
:102590008EE78093EA001092EA008F8980935902B7
:1025A00029C08093E9003093EB0021912093EC0047
:1025B0009093ED008F5F853041F7EACF8B8D9C8D36
:1025C00093DE898D811104C0CE01459616DB05C0CE
:1025D00086DCBE016B5E7F4F1DDC882379F00AC06C
:1025E0006DE571E002C06DE871E0FB01449150E0DF
:1025F00080E885DE8EEF8093E80003C081E280935F
:10260000EB006C960FB6F894DEBF0FBECDBFDF9126
:10261000CF91FF91EF91BF91AF919F918F917F915A
:102620006F915F914F913F912F911F910F91FF906B
:10263000EF90DF90CF900F900FBE0F901F901895E6
:102640008093E9008091F200882319F08AE3809357
:10265000E80008951F920F920FB60F9211242F9346
:102660003F934F935F936F937F938F939F93AF931A
:10267000BF93CF93EF93FF93C091E1008091E1006E
:10268000837F8093E100C3FF0FC01092E90081E0D7
:102690008093EB001092EC0082E38093ED001092A7
:1026A000590288E08093F000C2FF18C083E0C8DFC1
:1026B00080915B02882339F080915B028150809386
:1026C0005B02882389F180915A02882339F0809136
:1026D0005A02815080935A02882341F1C4FF10C0EE
:1026E0008091E2008E7E81608093E2008091E10023
:1026F0008F7E8093E100809157028E7E806111C0B1
:10270000C0FF16C08091E2008E7E80618093E2005F
:102710008091E1008E7E8093E100809157028E7E51
:1027200081608093570204C05D9ACDCF5C9AD6CF6A
:10273000FF91EF91CF91BF91AF919F918F917F9139
:102740006F915F914F913F912F910F900FBE0F901E
:102750001F90189510925902109258021092570229
:1027600068DCE1EEF0E080818E7E80838DE08093F6
:10277000E2008AB180638AB908950895B7D0FDDF79
:1027800082E592E0E7DF0E94F400C0E0D0E00E9422
:102790000A012097E1F30E940000F9CF1F920F92E7
:1027A0000FB60F9211242F933F938F939F93AF9364
:1027B000BF9380915D0290915E02A0915F02B09103
:1027C000600230915C0223E0230F2D3720F4019644
:1027D000A11DB11D05C026E8230F0296A11DB11D44
:1027E00020935C0280935D0290935E02A0935F024F
:1027F000B09360028091610290916202A0916302A5
:10280000B09164020196A11DB11D80936102909365
:102810006202A0936302B0936402BF91AF919F9153
:102820008F913F912F910F900FBE0F901F90189591
:102830003FB7F8948091610290916202A091630287
:10284000B091640226B5A89B05C02F3F19F00196F0
:10285000A11DB11D3FBFBA2FA92F982F8827820F26
:10286000911DA11DB11DBC01CD0142E0660F771F76
:10287000881F991F4A95D1F708958F929F92AF9222
:10288000BF92CF92DF92EF92FF926B017C01D0DF7B
:102890004B015C01C114D104E104F104F1F047D013
:1028A000C7DFDC01CB0188199909AA09BB09883E59
:1028B0009340A105B10570F321E0C21AD108E108E7
:1028C000F10888EE880E83E0981EA11CB11CC1148B
:1028D000D104E104F10421F7DDCFFF90EF90DF9008
:1028E000CF90BF90AF909F908F900895789484B5CB
:1028F000826084BD84B5816084BD85B5826085BDFC
:1029000085B5816085BDEEE6F0E0808181608083E1
:10291000E1E8F0E0108280818260808380818160C4
:102920008083E0E8F0E080818160808308950895ED
:10293000A1E21A2EAA1BBB1BFD010DC0AA1FBB1FC3
:10294000EE1FFF1FA217B307E407F50720F0A21B35
:10295000B30BE40BF50B661F771F881F991F1A94A2
:1029600069F760957095809590959B01AC01BD01CC
:10297000CF010895EE0FFF1F0590F491E02D09940B
:04298000F894FFCFF9
:10298400FFFFFFFF00E100000000000000C18081A4
:10299400004D79656C696E0041726475696E6F20D3
:1029A400434D5349532D44415000313233340031A7
:1029B4002E300000000000320CE90B8A0C790B80E9
:1029C4000B900BB30BCF0BD10B2E0CF6FF0000E7D3
:1029D4000B830F760BD00B880BB10BCD0B000000D3
:1029E400008E0DD40DB40DB80DBA0DC80DA40D0094
:00000001FF
